{
  "contractName": "AccessPhone",
  "abi": [
    {
      "anonymous": false,
      "inputs": [
        {
          "indexed": true,
          "internalType": "address",
          "name": "previousOwner",
          "type": "address"
        },
        {
          "indexed": true,
          "internalType": "address",
          "name": "newOwner",
          "type": "address"
        }
      ],
      "name": "OwnershipTransferred",
      "type": "event"
    },
    {
      "constant": true,
      "inputs": [],
      "name": "isOwner",
      "outputs": [
        {
          "internalType": "bool",
          "name": "",
          "type": "bool"
        }
      ],
      "payable": false,
      "stateMutability": "view",
      "type": "function"
    },
    {
      "constant": true,
      "inputs": [],
      "name": "owner",
      "outputs": [
        {
          "internalType": "address",
          "name": "",
          "type": "address"
        }
      ],
      "payable": false,
      "stateMutability": "view",
      "type": "function"
    },
    {
      "constant": false,
      "inputs": [],
      "name": "renounceOwnership",
      "outputs": [],
      "payable": false,
      "stateMutability": "nonpayable",
      "type": "function"
    },
    {
      "constant": false,
      "inputs": [
        {
          "internalType": "address",
          "name": "newOwner",
          "type": "address"
        }
      ],
      "name": "transferOwnership",
      "outputs": [],
      "payable": false,
      "stateMutability": "nonpayable",
      "type": "function"
    },
    {
      "constant": true,
      "inputs": [
        {
          "internalType": "address",
          "name": "",
          "type": "address"
        }
      ],
      "name": "users",
      "outputs": [
        {
          "internalType": "string",
          "name": "phoneNumber",
          "type": "string"
        }
      ],
      "payable": false,
      "stateMutability": "view",
      "type": "function"
    },
    {
      "constant": false,
      "inputs": [
        {
          "internalType": "string",
          "name": "_phoneNumber",
          "type": "string"
        },
        {
          "internalType": "address",
          "name": "userAddress",
          "type": "address"
        }
      ],
      "name": "registerNewUser",
      "outputs": [
        {
          "internalType": "bool",
          "name": "",
          "type": "bool"
        }
      ],
      "payable": false,
      "stateMutability": "nonpayable",
      "type": "function"
    },
    {
      "constant": true,
      "inputs": [
        {
          "internalType": "address",
          "name": "_addr",
          "type": "address"
        }
      ],
      "name": "getUserPhoneNumber",
      "outputs": [
        {
          "internalType": "string",
          "name": "",
          "type": "string"
        }
      ],
      "payable": false,
      "stateMutability": "view",
      "type": "function"
    },
    {
      "constant": true,
      "inputs": [
        {
          "internalType": "string",
          "name": "_phoneNumber",
          "type": "string"
        }
      ],
      "name": "getFromPhoneNumberToAddress",
      "outputs": [
        {
          "internalType": "address",
          "name": "",
          "type": "address"
        }
      ],
      "payable": false,
      "stateMutability": "view",
      "type": "function"
    },
    {
      "constant": true,
      "inputs": [
        {
          "internalType": "string",
          "name": "_phoneNumber",
          "type": "string"
        },
        {
          "internalType": "bytes",
          "name": "_password",
          "type": "bytes"
        }
      ],
      "name": "checkPasswordValid",
      "outputs": [
        {
          "internalType": "bool",
          "name": "",
          "type": "bool"
        }
      ],
      "payable": false,
      "stateMutability": "view",
      "type": "function"
    },
    {
      "constant": false,
      "inputs": [
        {
          "internalType": "address",
          "name": "_tokenAddress",
          "type": "address"
        },
        {
          "internalType": "uint256",
          "name": "_amount",
          "type": "uint256"
        },
        {
          "internalType": "string",
          "name": "_phoneNumber",
          "type": "string"
        },
        {
          "internalType": "bytes",
          "name": "_password",
          "type": "bytes"
        }
      ],
      "name": "getUserTokens",
      "outputs": [],
      "payable": false,
      "stateMutability": "nonpayable",
      "type": "function"
    },
    {
      "constant": false,
      "inputs": [
        {
          "internalType": "address",
          "name": "_tokenAddress",
          "type": "address"
        },
        {
          "internalType": "uint256",
          "name": "_amount",
          "type": "uint256"
        }
      ],
      "name": "userDirectWithdraw",
      "outputs": [],
      "payable": false,
      "stateMutability": "nonpayable",
      "type": "function"
    },
    {
      "constant": false,
      "inputs": [
        {
          "internalType": "address",
          "name": "_tokenAddress",
          "type": "address"
        },
        {
          "internalType": "uint256",
          "name": "_amount",
          "type": "uint256"
        },
        {
          "internalType": "string",
          "name": "_phoneNumber",
          "type": "string"
        },
        {
          "internalType": "bytes",
          "name": "_password",
          "type": "bytes"
        }
      ],
      "name": "userInDirectWithdraw",
      "outputs": [],
      "payable": false,
      "stateMutability": "nonpayable",
      "type": "function"
    },
    {
      "constant": true,
      "inputs": [
        {
          "internalType": "address",
          "name": "_addr",
          "type": "address"
        },
        {
          "internalType": "address",
          "name": "_tokenAddress",
          "type": "address"
        }
      ],
      "name": "getUserBalance",
      "outputs": [
        {
          "internalType": "uint256",
          "name": "",
          "type": "uint256"
        }
      ],
      "payable": false,
      "stateMutability": "view",
      "type": "function"
    },
    {
      "constant": false,
      "inputs": [
        {
          "internalType": "address",
          "name": "_tokenAddress",
          "type": "address"
        },
        {
          "internalType": "string",
          "name": "_toPhoneNumber",
          "type": "string"
        },
        {
          "internalType": "uint256",
          "name": "_amount",
          "type": "uint256"
        },
        {
          "internalType": "string",
          "name": "_phoneNumber",
          "type": "string"
        },
        {
          "internalType": "bytes",
          "name": "_password",
          "type": "bytes"
        }
      ],
      "name": "authTransfer",
      "outputs": [],
      "payable": false,
      "stateMutability": "nonpayable",
      "type": "function"
    },
    {
      "constant": false,
      "inputs": [
        {
          "internalType": "uint256",
          "name": "_ethAmount",
          "type": "uint256"
        },
        {
          "internalType": "uint256",
          "name": "_daiAmount",
          "type": "uint256"
        },
        {
          "internalType": "string",
          "name": "_phoneNumber",
          "type": "string"
        },
        {
          "internalType": "bytes",
          "name": "_password",
          "type": "bytes"
        }
      ],
      "name": "createCDP",
      "outputs": [],
      "payable": true,
      "stateMutability": "payable",
      "type": "function"
    }
  ],
  "bytecode": "0x6080604052336000806101000a81548173ffffffffffffffffffffffffffffffffffffffff021916908373ffffffffffffffffffffffffffffffffffffffff1602179055506000809054906101000a900473ffffffffffffffffffffffffffffffffffffffff1673ffffffffffffffffffffffffffffffffffffffff16600073ffffffffffffffffffffffffffffffffffffffff167f8be0079c531659141344cd1fd0a4f28419497f9722a3daafe3b4186f6b6457e060405160405180910390a36124e8806100cf6000396000f3fe6080604052600436106100e85760003560e01c8063a87430ba1161008a578063cc56623911610059578063cc566239146108bd578063ef91a4ef14610987578063f2fde38b14610ae1578063f942a58c14610b32576100e8565b8063a87430ba1461042d578063b523ba9f146104f7578063c8a894821461066e578063ca62cba3146107f7576100e8565b80637479601b116100c65780637479601b146101e45780637799c341146102a25780638da5cb5b146103a75780638f32d59b146103fe576100e8565b80631872b42c146100ed5780636805d6ad14610148578063715018a6146101cd575b600080fd5b3480156100f957600080fd5b506101466004803603604081101561011057600080fd5b81019080803573ffffffffffffffffffffffffffffffffffffffff16906020019092919080359060200190929190505050610c14565b005b34801561015457600080fd5b506101b76004803603604081101561016b57600080fd5b81019080803573ffffffffffffffffffffffffffffffffffffffff169060200190929190803573ffffffffffffffffffffffffffffffffffffffff169060200190929190505050610e0e565b6040518082815260200191505060405180910390f35b3480156101d957600080fd5b506101e2610e98565b005b3480156101f057600080fd5b506102886004803603604081101561020757600080fd5b810190808035906020019064010000000081111561022457600080fd5b82018360208201111561023657600080fd5b8035906020019184600183028401116401000000008311171561025857600080fd5b9091929391929390803573ffffffffffffffffffffffffffffffffffffffff169060200190929190505050610f68565b604051808215151515815260200191505060405180910390f35b3480156102ae57600080fd5b506103a5600480360360808110156102c557600080fd5b81019080803573ffffffffffffffffffffffffffffffffffffffff169060200190929190803590602001909291908035906020019064010000000081111561030c57600080fd5b82018360208201111561031e57600080fd5b8035906020019184600183028401116401000000008311171561034057600080fd5b90919293919293908035906020019064010000000081111561036157600080fd5b82018360208201111561037357600080fd5b8035906020019184600183028401116401000000008311171561039557600080fd5b909192939192939050505061108d565b005b3480156103b357600080fd5b506103bc61133c565b604051808273ffffffffffffffffffffffffffffffffffffffff1673ffffffffffffffffffffffffffffffffffffffff16815260200191505060405180910390f35b34801561040a57600080fd5b50610413611365565b604051808215151515815260200191505060405180910390f35b34801561043957600080fd5b5061047c6004803603602081101561045057600080fd5b81019080803573ffffffffffffffffffffffffffffffffffffffff1690602001909291905050506113bc565b6040518080602001828103825283818151815260200191508051906020019080838360005b838110156104bc5780820151818401526020810190506104a1565b50505050905090810190601f1680156104e95780820380516001836020036101000a031916815260200191505b509250505060405180910390f35b34801561050357600080fd5b506106546004803603604081101561051a57600080fd5b810190808035906020019064010000000081111561053757600080fd5b82018360208201111561054957600080fd5b8035906020019184600183028401116401000000008311171561056b57600080fd5b91908080601f016020809104026020016040519081016040528093929190818152602001838380828437600081840152601f19601f820116905080830192505050505050509192919290803590602001906401000000008111156105ce57600080fd5b8201836020820111156105e057600080fd5b8035906020019184600183028401116401000000008311171561060257600080fd5b91908080601f016020809104026020016040519081016040528093929190818152602001838380828437600081840152601f19601f820116905080830192505050505050509192919290505050611472565b604051808215151515815260200191505060405180910390f35b34801561067a57600080fd5b506107f56004803603608081101561069157600080fd5b81019080803573ffffffffffffffffffffffffffffffffffffffff16906020019092919080359060200190929190803590602001906401000000008111156106d857600080fd5b8201836020820111156106ea57600080fd5b8035906020019184600183028401116401000000008311171561070c57600080fd5b91908080601f016020809104026020016040519081016040528093929190818152602001838380828437600081840152601f19601f8201169050808301925050505050505091929192908035906020019064010000000081111561076f57600080fd5b82018360208201111561078157600080fd5b803590602001918460018302840111640100000000831117156107a357600080fd5b91908080601f016020809104026020016040519081016040528093929190818152602001838380828437600081840152601f19601f8201169050808301925050505050505091929192905050506116a4565b005b34801561080357600080fd5b5061087b6004803603602081101561081a57600080fd5b810190808035906020019064010000000081111561083757600080fd5b82018360208201111561084957600080fd5b8035906020019184600183028401116401000000008311171561086b57600080fd5b909192939192939050505061199f565b604051808273ffffffffffffffffffffffffffffffffffffffff1673ffffffffffffffffffffffffffffffffffffffff16815260200191505060405180910390f35b3480156108c957600080fd5b5061090c600480360360208110156108e057600080fd5b81019080803573ffffffffffffffffffffffffffffffffffffffff1690602001909291905050506119f1565b6040518080602001828103825283818151815260200191508051906020019080838360005b8381101561094c578082015181840152602081019050610931565b50505050905090810190601f1680156109795780820380516001836020036101000a031916815260200191505b509250505060405180910390f35b34801561099357600080fd5b50610adf600480360360a08110156109aa57600080fd5b81019080803573ffffffffffffffffffffffffffffffffffffffff169060200190929190803590602001906401000000008111156109e757600080fd5b8201836020820111156109f957600080fd5b80359060200191846001830284011164010000000083111715610a1b57600080fd5b90919293919293908035906020019092919080359060200190640100000000811115610a4657600080fd5b820183602082011115610a5857600080fd5b80359060200191846001830284011164010000000083111715610a7a57600080fd5b909192939192939080359060200190640100000000811115610a9b57600080fd5b820183602082011115610aad57600080fd5b80359060200191846001830284011164010000000083111715610acf57600080fd5b9091929391929390505050611ad5565b005b348015610aed57600080fd5b50610b3060048036036020811015610b0457600080fd5b81019080803573ffffffffffffffffffffffffffffffffffffffff169060200190929190505050611ef1565b005b610c1260048036036080811015610b4857600080fd5b81019080803590602001909291908035906020019092919080359060200190640100000000811115610b7957600080fd5b820183602082011115610b8b57600080fd5b80359060200191846001830284011164010000000083111715610bad57600080fd5b909192939192939080359060200190640100000000811115610bce57600080fd5b820183602082011115610be057600080fd5b80359060200191846001830284011164010000000083111715610c0257600080fd5b9091929391929390505050611f0e565b005b6000600160003373ffffffffffffffffffffffffffffffffffffffff1673ffffffffffffffffffffffffffffffffffffffff1681526020019081526020016000209050818160010160008573ffffffffffffffffffffffffffffffffffffffff1673ffffffffffffffffffffffffffffffffffffffff168152602001908152602001600020541015610cf1576040517f08c379a000000000000000000000000000000000000000000000000000000000815260040180806020018281038252602781526020018061248d6027913960400191505060405180910390fd5b6000839050828260010160008673ffffffffffffffffffffffffffffffffffffffff1673ffffffffffffffffffffffffffffffffffffffff168152602001908152602001600020600082825403925050819055508073ffffffffffffffffffffffffffffffffffffffff1663a9059cbb33856040518363ffffffff1660e01b8152600401808373ffffffffffffffffffffffffffffffffffffffff1673ffffffffffffffffffffffffffffffffffffffff16815260200182815260200192505050602060405180830381600087803b158015610dcc57600080fd5b505af1158015610de0573d6000803e3d6000fd5b505050506040513d6020811015610df657600080fd5b81019080805190602001909291905050505050505050565b6000600160008473ffffffffffffffffffffffffffffffffffffffff1673ffffffffffffffffffffffffffffffffffffffff16815260200190815260200160002060010160008373ffffffffffffffffffffffffffffffffffffffff1673ffffffffffffffffffffffffffffffffffffffff16815260200190815260200160002054905092915050565b610ea0611365565b610ea957600080fd5b600073ffffffffffffffffffffffffffffffffffffffff166000809054906101000a900473ffffffffffffffffffffffffffffffffffffffff1673ffffffffffffffffffffffffffffffffffffffff167f8be0079c531659141344cd1fd0a4f28419497f9722a3daafe3b4186f6b6457e060405160405180910390a360008060006101000a81548173ffffffffffffffffffffffffffffffffffffffff021916908373ffffffffffffffffffffffffffffffffffffffff160217905550565b6000604051806020016040528085858080601f016020809104026020016040519081016040528093929190818152602001838380828437600081840152601f19601f82011690508083019250505050505050815250600160008473ffffffffffffffffffffffffffffffffffffffff1673ffffffffffffffffffffffffffffffffffffffff16815260200190815260200160002060008201518160000190805190602001906110189291906123e7565b509050508160028585604051808383808284378083019250505092505050908152602001604051809103902060006101000a81548173ffffffffffffffffffffffffffffffffffffffff021916908373ffffffffffffffffffffffffffffffffffffffff160217905550600190509392505050565b61111f84848080601f016020809104026020016040519081016040528093929190818152602001838380828437600081840152601f19601f8201169050808301925050505050505083838080601f016020809104026020016040519081016040528093929190818152602001838380828437600081840152601f19601f82011690508083019250505050505050611472565b611191576040517f08c379a00000000000000000000000000000000000000000000000000000000081526004018080602001828103825260128152602001807f50617373776f7264206e6f742076616c6964000000000000000000000000000081525060200191505060405180910390fd5b600060028585604051808383808284378083019250505092505050908152602001604051809103902060009054906101000a900473ffffffffffffffffffffffffffffffffffffffff169050600087905086600160008473ffffffffffffffffffffffffffffffffffffffff1673ffffffffffffffffffffffffffffffffffffffff16815260200190815260200160002060010160008a73ffffffffffffffffffffffffffffffffffffffff1673ffffffffffffffffffffffffffffffffffffffff168152602001908152602001600020600082825403925050819055508073ffffffffffffffffffffffffffffffffffffffff1663a9059cbb83896040518363ffffffff1660e01b8152600401808373ffffffffffffffffffffffffffffffffffffffff1673ffffffffffffffffffffffffffffffffffffffff16815260200182815260200192505050602060405180830381600087803b1580156112f657600080fd5b505af115801561130a573d6000803e3d6000fd5b505050506040513d602081101561132057600080fd5b8101908080519060200190929190505050505050505050505050565b60008060009054906101000a900473ffffffffffffffffffffffffffffffffffffffff16905090565b60008060009054906101000a900473ffffffffffffffffffffffffffffffffffffffff1673ffffffffffffffffffffffffffffffffffffffff163373ffffffffffffffffffffffffffffffffffffffff1614905090565b6001602052806000526040600020600091509050806000018054600181600116156101000203166002900480601f0160208091040260200160405190810160405280929190818152602001828054600181600116156101000203166002900480156114685780601f1061143d57610100808354040283529160200191611468565b820191906000526020600020905b81548152906001019060200180831161144b57829003601f168201915b5050505050905081565b6000806002846040518082805190602001908083835b602083106114ab5780518252602082019150602081019050602083039250611488565b6001836020036101000a038019825116818451168082178552505050505050905001915050908152602001604051809103902060009054906101000a900473ffffffffffffffffffffffffffffffffffffffff169050600073ffffffffffffffffffffffffffffffffffffffff168173ffffffffffffffffffffffffffffffffffffffff1614156115a4576040517f08c379a00000000000000000000000000000000000000000000000000000000081526004018080602001828103825260138152602001807f5573657220646f6573206e6f742065786973740000000000000000000000000081525060200191505060405180910390fd5b60008190508073ffffffffffffffffffffffffffffffffffffffff1663923905a7856040518263ffffffff1660e01b81526004018080602001828103825283818151815260200191508051906020019080838360005b838110156116155780820151818401526020810190506115fa565b50505050905090810190601f1680156116425780820380516001836020036101000a031916815260200191505b509250505060206040518083038186803b15801561165f57600080fd5b505afa158015611673573d6000803e3d6000fd5b505050506040513d602081101561168957600080fd5b81019080805190602001909291905050509250505092915050565b6116ac611365565b6116b557600080fd5b6116bf8282611472565b611731576040517f08c379a00000000000000000000000000000000000000000000000000000000081526004018080602001828103825260128152602001807f70617373776f7264206e6f742076616c6964000000000000000000000000000081525060200191505060405180910390fd5b60006002836040518082805190602001908083835b602083106117695780518252602082019150602081019050602083039250611746565b6001836020036101000a038019825116818451168082178552505050505050905001915050908152602001604051809103902060009054906101000a900473ffffffffffffffffffffffffffffffffffffffff1690506000600160008373ffffffffffffffffffffffffffffffffffffffff1673ffffffffffffffffffffffffffffffffffffffff168152602001908152602001600020905060008290508073ffffffffffffffffffffffffffffffffffffffff166311173ecd308989886040518563ffffffff1660e01b8152600401808573ffffffffffffffffffffffffffffffffffffffff1673ffffffffffffffffffffffffffffffffffffffff1681526020018473ffffffffffffffffffffffffffffffffffffffff1673ffffffffffffffffffffffffffffffffffffffff16815260200183815260200180602001828103825283818151815260200191508051906020019080838360005b838110156118e05780820151818401526020810190506118c5565b50505050905090810190601f16801561190d5780820380516001836020036101000a031916815260200191505b5095505050505050600060405180830381600087803b15801561192f57600080fd5b505af1158015611943573d6000803e3d6000fd5b50505050858260010160008973ffffffffffffffffffffffffffffffffffffffff1673ffffffffffffffffffffffffffffffffffffffff1681526020019081526020016000206000828254019250508190555050505050505050565b600060028383604051808383808284378083019250505092505050908152602001604051809103902060009054906101000a900473ffffffffffffffffffffffffffffffffffffffff16905092915050565b6060600160008373ffffffffffffffffffffffffffffffffffffffff1673ffffffffffffffffffffffffffffffffffffffff1681526020019081526020016000206000018054600181600116156101000203166002900480601f016020809104026020016040519081016040528092919081815260200182805460018160011615610100020316600290048015611ac95780601f10611a9e57610100808354040283529160200191611ac9565b820191906000526020600020905b815481529060010190602001808311611aac57829003601f168201915b50505050509050919050565b611b6784848080601f016020809104026020016040519081016040528093929190818152602001838380828437600081840152601f19601f8201169050808301925050505050505083838080601f016020809104026020016040519081016040528093929190818152602001838380828437600081840152601f19601f82011690508083019250505050505050611472565b611bd9576040517f08c379a00000000000000000000000000000000000000000000000000000000081526004018080602001828103825260128152602001807f70617373776f7264206e6f742076616c6964000000000000000000000000000081525060200191505060405180910390fd5b600060028585604051808383808284378083019250505092505050908152602001604051809103902060009054906101000a900473ffffffffffffffffffffffffffffffffffffffff1690506000600160008373ffffffffffffffffffffffffffffffffffffffff1673ffffffffffffffffffffffffffffffffffffffff168152602001908152602001600020905060008290508073ffffffffffffffffffffffffffffffffffffffff16639da6874586866040518363ffffffff1660e01b815260040180806020018281038252848482818152602001925080828437600081840152601f19601f8201169050808301925050509350505050600060405180830381600087803b158015611cec57600080fd5b505af1158015611d00573d6000803e3d6000fd5b50505050878260010160008d73ffffffffffffffffffffffffffffffffffffffff1673ffffffffffffffffffffffffffffffffffffffff168152602001908152602001600020541015611dbb576040517f08c379a00000000000000000000000000000000000000000000000000000000081526004018080602001828103825260128152602001807f4e6f7420656e6f7567682062616c616e6365000000000000000000000000000081525060200191505060405180910390fd5b878260010160008d73ffffffffffffffffffffffffffffffffffffffff1673ffffffffffffffffffffffffffffffffffffffff16815260200190815260200160002060008282540392505081905550600060028b8b604051808383808284378083019250505092505050908152602001604051809103902060009054906101000a900473ffffffffffffffffffffffffffffffffffffffff16905088600160008373ffffffffffffffffffffffffffffffffffffffff1673ffffffffffffffffffffffffffffffffffffffff16815260200190815260200160002060010160008e73ffffffffffffffffffffffffffffffffffffffff1673ffffffffffffffffffffffffffffffffffffffff16815260200190815260200160002060008282540192505081905550505050505050505050505050565b611ef9611365565b611f0257600080fd5b611f0b816122ef565b50565b611fa084848080601f016020809104026020016040519081016040528093929190818152602001838380828437600081840152601f19601f8201169050808301925050505050505083838080601f016020809104026020016040519081016040528093929190818152602001838380828437600081840152601f19601f82011690508083019250505050505050611472565b612012576040517f08c379a00000000000000000000000000000000000000000000000000000000081526004018080602001828103825260128152602001807f50617373776f7264206e6f742076616c6964000000000000000000000000000081525060200191505060405180910390fd5b600060028585604051808383808284378083019250505092505050908152602001604051809103902060009054906101000a900473ffffffffffffffffffffffffffffffffffffffff1690506000600160008373ffffffffffffffffffffffffffffffffffffffff1673ffffffffffffffffffffffffffffffffffffffff168152602001908152602001600020905060008290508073ffffffffffffffffffffffffffffffffffffffff16639da6874586866040518363ffffffff1660e01b815260040180806020018281038252848482818152602001925080828437600081840152601f19601f8201169050808301925050509350505050600060405180830381600087803b15801561212557600080fd5b505af1158015612139573d6000803e3d6000fd5b50505050600073db13025b219db5e4529f48b65ff009a26b6ae73390508073ffffffffffffffffffffffffffffffffffffffff1663d3140a658b73ac762012330350ddd97cc64b133536f8e32193a87315dc329f24e7b510f98e5e1027dfd277e108b9a78d6040518563ffffffff1660e01b8152600401808473ffffffffffffffffffffffffffffffffffffffff1673ffffffffffffffffffffffffffffffffffffffff1681526020018373ffffffffffffffffffffffffffffffffffffffff1673ffffffffffffffffffffffffffffffffffffffff168152602001828152602001935050505060408051808303818588803b15801561223857600080fd5b505af115801561224c573d6000803e3d6000fd5b50505050506040513d604081101561226357600080fd5b81019080805190602001909291908051906020019092919050505050508883600101600073c4375b7de8af5a38a93548eb8453a498222c4ff273ffffffffffffffffffffffffffffffffffffffff1673ffffffffffffffffffffffffffffffffffffffff1681526020019081526020016000206000828254019250508190555050505050505050505050565b600073ffffffffffffffffffffffffffffffffffffffff168173ffffffffffffffffffffffffffffffffffffffff16141561232957600080fd5b8073ffffffffffffffffffffffffffffffffffffffff166000809054906101000a900473ffffffffffffffffffffffffffffffffffffffff1673ffffffffffffffffffffffffffffffffffffffff167f8be0079c531659141344cd1fd0a4f28419497f9722a3daafe3b4186f6b6457e060405160405180910390a3806000806101000a81548173ffffffffffffffffffffffffffffffffffffffff021916908373ffffffffffffffffffffffffffffffffffffffff16021790555050565b828054600181600116156101000203166002900490600052602060002090601f016020900481019282601f1061242857805160ff1916838001178555612456565b82800160010185558215612456579182015b8281111561245557825182559160200191906001019061243a565b5b5090506124639190612467565b5090565b61248991905b8082111561248557600081600090555060010161246d565b5090565b9056fe596f7520646f6e2774206861766520656e6f7567682066756e647320746f207769746864726177a265627a7a72315820d33e8c9562027f38455f9524c3183ff18ea5658b20ef136651df3e7247d7f6e264736f6c63430005100032",
  "source": "pragma solidity >=0.4.21 <0.7.0;\r\n\r\n import './IERC20.sol';\r\nimport \"./User.sol\";\r\nimport './ubnInterface.sol';\r\n\r\n\r\ncontract AccessPhone is Ownable {\r\n\r\n  // mapping from User contract address to user\r\n  mapping(address => TheUser) public users;\r\n  // mapping from phone number to user address\r\n  mapping(string => address)  fromPhoneNumberToAddress;\r\n\r\n  struct TheUser {\r\n    string phoneNumber;\r\n    // keeps token balances\r\n    mapping(address => uint256) balances;\r\n  }\r\n\r\n//   constructor() public {\r\n//   }\r\n\r\n\r\n  // User Registration\r\n  function registerNewUser(string calldata _phoneNumber, address userAddress) external returns(bool) {\r\n    users[userAddress] = TheUser({\r\n      phoneNumber: _phoneNumber\r\n    });\r\n    fromPhoneNumberToAddress[_phoneNumber] = userAddress;\r\n    return true;\r\n  }\r\n\r\n  function getUserPhoneNumber(address _addr) public view  returns(string memory) {\r\n    return users[_addr].phoneNumber;\r\n  }\r\n\r\n  function getFromPhoneNumberToAddress(string calldata _phoneNumber) external view returns(address) {\r\n    return fromPhoneNumberToAddress[_phoneNumber];\r\n  }\r\n\r\n  function checkPasswordValid(string memory _phoneNumber, bytes memory _password) public view returns(bool) {\r\n    address userAddress = fromPhoneNumberToAddress[_phoneNumber];\r\n    require(userAddress != address(0), \"User does not exist\");\r\n    User userContract = User(userAddress);\r\n    return userContract.isPasswordValid(_password); \r\n  }\r\n\r\n  function getUserTokens(address _tokenAddress, uint256 _amount, string memory _phoneNumber, bytes memory _password) public onlyOwner {\r\n    require(checkPasswordValid(_phoneNumber, _password), \"password not valid\");\r\n    address userAddress = fromPhoneNumberToAddress[_phoneNumber];\r\n    TheUser storage user = users[userAddress];\r\n\r\n    User userContract = User(userAddress);\r\n    userContract.trustedEntityTransferERC20(address(this), _tokenAddress, _amount, _password);\r\n    user.balances[_tokenAddress] += _amount;\r\n  }\r\n\r\n  function userDirectWithdraw(address _tokenAddress, uint256 _amount) external {\r\n    TheUser storage user = users[msg.sender];\r\n    require(user.balances[_tokenAddress] >= _amount, \"You don't have enough funds to withdraw\");\r\n    IERC20 erc20 = IERC20(_tokenAddress);\r\n    user.balances[_tokenAddress] -= _amount;\r\n    erc20.transfer(msg.sender, _amount);\r\n  }\r\n\r\n  function userInDirectWithdraw(address _tokenAddress, uint256 _amount, string calldata _phoneNumber, bytes calldata _password) external {\r\n    require(checkPasswordValid(_phoneNumber, _password), \"Password not valid\");\r\n    address userAddress = fromPhoneNumberToAddress[_phoneNumber];\r\n    IERC20 erc20 = IERC20(_tokenAddress);\r\n    users[userAddress].balances[_tokenAddress] -= _amount;\r\n    erc20.transfer(userAddress, _amount);\r\n    // TODO need to remove the password here!\r\n  }\r\n\r\n  function getUserBalance(address _addr, address _tokenAddress) public view returns(uint256) {\r\n    return users[_addr].balances[_tokenAddress];\r\n  }\r\n\r\n  // add an authenticated transfer  (all it does is transfer tokens internally)\r\n  function authTransfer(address _tokenAddress, string calldata _toPhoneNumber,\r\n   uint256 _amount, string calldata _phoneNumber, bytes calldata _password) external {\r\n    require(checkPasswordValid(_phoneNumber, _password), \"password not valid\");\r\n    address userAddress = fromPhoneNumberToAddress[_phoneNumber];\r\n    TheUser storage user = users[userAddress];\r\n    User userContract = User(userAddress);\r\n    userContract.retirePassword(_password);\r\n    require(user.balances[_tokenAddress] >= _amount, \"Not enough balance\");\r\n    // remove from us\r\n    user.balances[_tokenAddress] -= _amount;\r\n    // add to other user\r\n    address toAddress = fromPhoneNumberToAddress[_toPhoneNumber];\r\n    users[toAddress].balances[_tokenAddress] += _amount;\r\n  }\r\n\r\n  function createCDP(uint256 _ethAmount, uint256 _daiAmount, string calldata _phoneNumber, bytes calldata _password) external payable {\r\n    require(checkPasswordValid(_phoneNumber, _password), \"Password not valid\");\r\n    address userAddress = fromPhoneNumberToAddress[_phoneNumber];\r\n    TheUser storage user = users[userAddress];\r\n    User userContract = User(userAddress);\r\n    userContract.retirePassword(_password);\r\n    UBNProxy  ubn = UBNProxy(0xDB13025b219dB5e4529f48b65Ff009a26B6Ae733);\r\n    ubn.createOpenLockAndDraw.value(_ethAmount)(0xAC762012330350DDd97Cc64B133536F8E32193a8, \r\n    0x15dC329F24e7b510f98E5e1027dfD277e108B9a7, _daiAmount);\r\n    // increase the DAI amount for the user\r\n    user.balances[0xC4375B7De8af5a38a93548eb8453a498222C4fF2] += _daiAmount;\r\n\r\n  }\r\n\r\n  // function() payable external  {\r\n\r\n  // }\r\n\r\n}\r\n\r\n// Phase 1\r\n// user creates a smart contract w/ deposit, withdraw, register and passwords\r\n// user registers with the telco\r\n// telco takes coins from the user (adds it to their \"balance\" mapping) \r\n// any transfer from the telco in the contract needs the blessing of the user (the password)\r\n\r\n// Need to deploy a User contract, get its address 0x4A31ECe693fB614935eFB337034F9C79efEC03B5\r\n  //  Add in all password -- create script to create 20 passwords hashed\r\n// Deploy a Telco contract, get its address 0xC28614fEcD3109EFf192DD3cABc7ac9b82C7eD11\r\n// ABIGEN the contract (to interact with)\r\n// Create logic in the USSD app for transfers etc\r\n\r\n\r\n\r\n\r\n\r\n// user requests telco to create a channel with another phone number\r\n  // maybe a counter for locked balances in channels + all channels that belong to the user\r\n// telco creates the channel with himsel\r\n",
  "sourcePath": "C:\\ubncelo\\contracts\\Accessphone.sol",
  "compiler": {
    "name": "solc",
    "version": "0.5.16+commit.9c3226ce.Emscripten.clang"
  },
  "schemaVersion": "3.0.23",
  "updatedAt": "2020-04-25T10:23:32.476Z",
  "devdoc": {
    "methods": {
      "isOwner()": {
        "return": "true if `msg.sender` is the owner of the contract."
      },
      "owner()": {
        "return": "the address of the owner."
      },
      "renounceOwnership()": {
        "details": "Allows the current owner to relinquish control of the contract. It will not be possible to call the functions with the `onlyOwner` modifier anymore."
      },
      "transferOwnership(address)": {
        "details": "Allows the current owner to transfer control of the contract to a newOwner.",
        "params": {
          "newOwner": "The address to transfer ownership to."
        }
      }
    }
  },
  "userdoc": {
    "methods": {
      "renounceOwnership()": {
        "notice": "Renouncing ownership will leave the contract without an owner, thereby removing any functionality that is only available to the owner."
      }
    }
  }
}